{
  "contractName": "OpenVault",
  "abi": [
    {
      "inputs": [],
      "stateMutability": "nonpayable",
      "type": "constructor"
    },
    {
      "anonymous": false,
      "inputs": [
        {
          "indexed": true,
          "internalType": "address",
          "name": "owner",
          "type": "address"
        },
        {
          "indexed": true,
          "internalType": "address",
          "name": "spender",
          "type": "address"
        },
        {
          "indexed": false,
          "internalType": "uint256",
          "name": "value",
          "type": "uint256"
        }
      ],
      "name": "Approval",
      "type": "event"
    },
    {
      "anonymous": false,
      "inputs": [
        {
          "indexed": false,
          "internalType": "address",
          "name": "buyer",
          "type": "address"
        },
        {
          "indexed": false,
          "internalType": "uint256",
          "name": "amountOfETH",
          "type": "uint256"
        },
        {
          "indexed": false,
          "internalType": "uint256",
          "name": "amountOfTokens",
          "type": "uint256"
        }
      ],
      "name": "BuyTokens",
      "type": "event"
    },
    {
      "anonymous": false,
      "inputs": [
        {
          "indexed": true,
          "internalType": "address",
          "name": "previousOwner",
          "type": "address"
        },
        {
          "indexed": true,
          "internalType": "address",
          "name": "newOwner",
          "type": "address"
        }
      ],
      "name": "OwnershipTransferred",
      "type": "event"
    },
    {
      "anonymous": false,
      "inputs": [
        {
          "indexed": true,
          "internalType": "address",
          "name": "from",
          "type": "address"
        },
        {
          "indexed": true,
          "internalType": "address",
          "name": "to",
          "type": "address"
        },
        {
          "indexed": false,
          "internalType": "uint256",
          "name": "value",
          "type": "uint256"
        }
      ],
      "name": "Transfer",
      "type": "event"
    },
    {
      "inputs": [
        {
          "internalType": "address",
          "name": "owner",
          "type": "address"
        },
        {
          "internalType": "address",
          "name": "spender",
          "type": "address"
        }
      ],
      "name": "allowance",
      "outputs": [
        {
          "internalType": "uint256",
          "name": "",
          "type": "uint256"
        }
      ],
      "stateMutability": "view",
      "type": "function",
      "constant": true
    },
    {
      "inputs": [
        {
          "internalType": "address",
          "name": "spender",
          "type": "address"
        },
        {
          "internalType": "uint256",
          "name": "amount",
          "type": "uint256"
        }
      ],
      "name": "approve",
      "outputs": [
        {
          "internalType": "bool",
          "name": "",
          "type": "bool"
        }
      ],
      "stateMutability": "nonpayable",
      "type": "function"
    },
    {
      "inputs": [
        {
          "internalType": "address",
          "name": "account",
          "type": "address"
        }
      ],
      "name": "balanceOf",
      "outputs": [
        {
          "internalType": "uint256",
          "name": "",
          "type": "uint256"
        }
      ],
      "stateMutability": "view",
      "type": "function",
      "constant": true
    },
    {
      "inputs": [],
      "name": "decimals",
      "outputs": [
        {
          "internalType": "uint8",
          "name": "",
          "type": "uint8"
        }
      ],
      "stateMutability": "view",
      "type": "function",
      "constant": true
    },
    {
      "inputs": [
        {
          "internalType": "address",
          "name": "spender",
          "type": "address"
        },
        {
          "internalType": "uint256",
          "name": "subtractedValue",
          "type": "uint256"
        }
      ],
      "name": "decreaseAllowance",
      "outputs": [
        {
          "internalType": "bool",
          "name": "",
          "type": "bool"
        }
      ],
      "stateMutability": "nonpayable",
      "type": "function"
    },
    {
      "inputs": [
        {
          "internalType": "address",
          "name": "spender",
          "type": "address"
        },
        {
          "internalType": "uint256",
          "name": "addedValue",
          "type": "uint256"
        }
      ],
      "name": "increaseAllowance",
      "outputs": [
        {
          "internalType": "bool",
          "name": "",
          "type": "bool"
        }
      ],
      "stateMutability": "nonpayable",
      "type": "function"
    },
    {
      "inputs": [],
      "name": "name",
      "outputs": [
        {
          "internalType": "string",
          "name": "",
          "type": "string"
        }
      ],
      "stateMutability": "view",
      "type": "function",
      "constant": true
    },
    {
      "inputs": [],
      "name": "owner",
      "outputs": [
        {
          "internalType": "address",
          "name": "",
          "type": "address"
        }
      ],
      "stateMutability": "view",
      "type": "function",
      "constant": true
    },
    {
      "inputs": [],
      "name": "renounceOwnership",
      "outputs": [],
      "stateMutability": "nonpayable",
      "type": "function"
    },
    {
      "inputs": [],
      "name": "symbol",
      "outputs": [
        {
          "internalType": "string",
          "name": "",
          "type": "string"
        }
      ],
      "stateMutability": "view",
      "type": "function",
      "constant": true
    },
    {
      "inputs": [],
      "name": "tokensPerEth",
      "outputs": [
        {
          "internalType": "uint256",
          "name": "",
          "type": "uint256"
        }
      ],
      "stateMutability": "view",
      "type": "function",
      "constant": true
    },
    {
      "inputs": [],
      "name": "totalSupply",
      "outputs": [
        {
          "internalType": "uint256",
          "name": "",
          "type": "uint256"
        }
      ],
      "stateMutability": "view",
      "type": "function",
      "constant": true
    },
    {
      "inputs": [
        {
          "internalType": "address",
          "name": "to",
          "type": "address"
        },
        {
          "internalType": "uint256",
          "name": "amount",
          "type": "uint256"
        }
      ],
      "name": "transfer",
      "outputs": [
        {
          "internalType": "bool",
          "name": "",
          "type": "bool"
        }
      ],
      "stateMutability": "nonpayable",
      "type": "function"
    },
    {
      "inputs": [
        {
          "internalType": "address",
          "name": "from",
          "type": "address"
        },
        {
          "internalType": "address",
          "name": "to",
          "type": "address"
        },
        {
          "internalType": "uint256",
          "name": "amount",
          "type": "uint256"
        }
      ],
      "name": "transferFrom",
      "outputs": [
        {
          "internalType": "bool",
          "name": "",
          "type": "bool"
        }
      ],
      "stateMutability": "nonpayable",
      "type": "function"
    },
    {
      "inputs": [
        {
          "internalType": "address",
          "name": "newOwner",
          "type": "address"
        }
      ],
      "name": "transferOwnership",
      "outputs": [],
      "stateMutability": "nonpayable",
      "type": "function"
    },
    {
      "inputs": [],
      "name": "buyTokens",
      "outputs": [
        {
          "internalType": "uint256",
          "name": "tokenAmount",
          "type": "uint256"
        }
      ],
      "stateMutability": "payable",
      "type": "function",
      "payable": true
    },
    {
      "inputs": [
        {
          "internalType": "uint256",
          "name": "tokenAmountToSell",
          "type": "uint256"
        }
      ],
      "name": "sellTokens",
      "outputs": [],
      "stateMutability": "nonpayable",
      "type": "function"
    },
    {
      "inputs": [],
      "name": "withdraw",
      "outputs": [],
      "stateMutability": "nonpayable",
      "type": "function"
    }
  ],
  "bytecode": "0x608060405260016006553480156200001657600080fd5b506040518060400160405280600981526020017f4f70656e5661756c7400000000000000000000000000000000000000000000008152506040518060400160405280600381526020017f4f5654000000000000000000000000000000000000000000000000000000000081525081600390805190602001906200009b9291906200034c565b508060049080519060200190620000b49291906200034c565b505050620000d7620000cb620000fb60201b60201c565b6200010360201b60201c565b620000f5306b033b2e3c9fd0803ce8000000620001c960201b60201c565b620005a8565b600033905090565b6000600560009054906101000a900473ffffffffffffffffffffffffffffffffffffffff16905081600560006101000a81548173ffffffffffffffffffffffffffffffffffffffff021916908373ffffffffffffffffffffffffffffffffffffffff1602179055508173ffffffffffffffffffffffffffffffffffffffff168173ffffffffffffffffffffffffffffffffffffffff167f8be0079c531659141344cd1fd0a4f28419497f9722a3daafe3b4186f6b6457e060405160405180910390a35050565b600073ffffffffffffffffffffffffffffffffffffffff168273ffffffffffffffffffffffffffffffffffffffff1614156200023c576040517f08c379a000000000000000000000000000000000000000000000000000000000815260040162000233906200045d565b60405180910390fd5b62000250600083836200034260201b60201c565b8060026000828254620002649190620004b8565b92505081905550806000808473ffffffffffffffffffffffffffffffffffffffff1673ffffffffffffffffffffffffffffffffffffffff1681526020019081526020016000206000828254620002bb9190620004b8565b925050819055508173ffffffffffffffffffffffffffffffffffffffff16600073ffffffffffffffffffffffffffffffffffffffff167fddf252ad1be2c89b69c2b068fc378daa952ba7f163c4a11628f55a4df523b3ef8360405162000322919062000526565b60405180910390a36200033e600083836200034760201b60201c565b5050565b505050565b505050565b8280546200035a9062000572565b90600052602060002090601f0160209004810192826200037e5760008555620003ca565b82601f106200039957805160ff1916838001178555620003ca565b82800160010185558215620003ca579182015b82811115620003c9578251825591602001919060010190620003ac565b5b509050620003d99190620003dd565b5090565b5b80821115620003f8576000816000905550600101620003de565b5090565b600082825260208201905092915050565b7f45524332303a206d696e7420746f20746865207a65726f206164647265737300600082015250565b600062000445601f83620003fc565b915062000452826200040d565b602082019050919050565b60006020820190508181036000830152620004788162000436565b9050919050565b6000819050919050565b7f4e487b7100000000000000000000000000000000000000000000000000000000600052601160045260246000fd5b6000620004c5826200047f565b9150620004d2836200047f565b9250827fffffffffffffffffffffffffffffffffffffffffffffffffffffffffffffffff038211156200050a576200050962000489565b5b828201905092915050565b62000520816200047f565b82525050565b60006020820190506200053d600083018462000515565b92915050565b7f4e487b7100000000000000000000000000000000000000000000000000000000600052602260045260246000fd5b600060028204905060018216806200058b57607f821691505b60208210811415620005a257620005a162000543565b5b50919050565b61232a80620005b86000396000f3fe6080604052600436106101095760003560e01c8063715018a611610095578063a9059cbb11610064578063a9059cbb1461036d578063cbdd69b5146103aa578063d0febe4c146103d5578063dd62ed3e146103f3578063f2fde38b1461043057610109565b8063715018a6146102c35780638da5cb5b146102da57806395d89b4114610305578063a457c2d71461033057610109565b8063313ce567116100dc578063313ce567146101de57806339509351146102095780633ccfd60b146102465780636c11bcd31461025d57806370a082311461028657610109565b806306fdde031461010e578063095ea7b31461013957806318160ddd1461017657806323b872dd146101a1575b600080fd5b34801561011a57600080fd5b50610123610459565b6040516101309190611416565b60405180910390f35b34801561014557600080fd5b50610160600480360381019061015b91906114d1565b6104eb565b60405161016d919061152c565b60405180910390f35b34801561018257600080fd5b5061018b61050e565b6040516101989190611556565b60405180910390f35b3480156101ad57600080fd5b506101c860048036038101906101c39190611571565b610518565b6040516101d5919061152c565b60405180910390f35b3480156101ea57600080fd5b506101f3610547565b60405161020091906115e0565b60405180910390f35b34801561021557600080fd5b50610230600480360381019061022b91906114d1565b610550565b60405161023d919061152c565b60405180910390f35b34801561025257600080fd5b5061025b610587565b005b34801561026957600080fd5b50610284600480360381019061027f91906115fb565b6106fb565b005b34801561029257600080fd5b506102ad60048036038101906102a89190611628565b6108ea565b6040516102ba9190611556565b60405180910390f35b3480156102cf57600080fd5b506102d8610932565b005b3480156102e657600080fd5b506102ef6109ba565b6040516102fc9190611664565b60405180910390f35b34801561031157600080fd5b5061031a6109e4565b6040516103279190611416565b60405180910390f35b34801561033c57600080fd5b50610357600480360381019061035291906114d1565b610a76565b604051610364919061152c565b60405180910390f35b34801561037957600080fd5b50610394600480360381019061038f91906114d1565b610aed565b6040516103a1919061152c565b60405180910390f35b3480156103b657600080fd5b506103bf610b10565b6040516103cc9190611556565b60405180910390f35b6103dd610b16565b6040516103ea9190611556565b60405180910390f35b3480156103ff57600080fd5b5061041a6004803603810190610415919061167f565b610c4e565b6040516104279190611556565b60405180910390f35b34801561043c57600080fd5b5061045760048036038101906104529190611628565b610cd5565b005b606060038054610468906116ee565b80601f0160208091040260200160405190810160405280929190818152602001828054610494906116ee565b80156104e15780601f106104b6576101008083540402835291602001916104e1565b820191906000526020600020905b8154815290600101906020018083116104c457829003601f168201915b5050505050905090565b6000806104f6610dcd565b9050610503818585610dd5565b600191505092915050565b6000600254905090565b600080610523610dcd565b9050610530858285610fa0565b61053b85858561102c565b60019150509392505050565b60006012905090565b60008061055b610dcd565b905061057c81858561056d8589610c4e565b610577919061174f565b610dd5565b600191505092915050565b61058f610dcd565b73ffffffffffffffffffffffffffffffffffffffff166105ad6109ba565b73ffffffffffffffffffffffffffffffffffffffff1614610603576040517f08c379a00000000000000000000000000000000000000000000000000000000081526004016105fa906117f1565b60405180910390fd5b60004790506000811161064b576040517f08c379a000000000000000000000000000000000000000000000000000000000815260040161064290611883565b60405180910390fd5b60003373ffffffffffffffffffffffffffffffffffffffff1647604051610671906118d4565b60006040518083038185875af1925050503d80600081146106ae576040519150601f19603f3d011682016040523d82523d6000602084013e6106b3565b606091505b50509050806106f7576040517f08c379a00000000000000000000000000000000000000000000000000000000081526004016106ee9061195b565b60405180910390fd5b5050565b6000811161073e576040517f08c379a0000000000000000000000000000000000000000000000000000000008152600401610735906119ed565b60405180910390fd5b6000610749336108ea565b90508181101561078e576040517f08c379a000000000000000000000000000000000000000000000000000000000815260040161078590611a7f565b60405180910390fd5b60006006548361079e9190611ace565b90506000479050818110156107e8576040517f08c379a00000000000000000000000000000000000000000000000000000000081526004016107df90611b71565b60405180910390fd5b60006107f5333087610518565b905080610837576040517f08c379a000000000000000000000000000000000000000000000000000000000815260040161082e90611c03565b60405180910390fd5b3373ffffffffffffffffffffffffffffffffffffffff168360405161085b906118d4565b60006040518083038185875af1925050503d8060008114610898576040519150601f19603f3d011682016040523d82523d6000602084013e61089d565b606091505b505080915050806108e3576040517f08c379a00000000000000000000000000000000000000000000000000000000081526004016108da90611c6f565b60405180910390fd5b5050505050565b60008060008373ffffffffffffffffffffffffffffffffffffffff1673ffffffffffffffffffffffffffffffffffffffff168152602001908152602001600020549050919050565b61093a610dcd565b73ffffffffffffffffffffffffffffffffffffffff166109586109ba565b73ffffffffffffffffffffffffffffffffffffffff16146109ae576040517f08c379a00000000000000000000000000000000000000000000000000000000081526004016109a5906117f1565b60405180910390fd5b6109b860006112ad565b565b6000600560009054906101000a900473ffffffffffffffffffffffffffffffffffffffff16905090565b6060600480546109f3906116ee565b80601f0160208091040260200160405190810160405280929190818152602001828054610a1f906116ee565b8015610a6c5780601f10610a4157610100808354040283529160200191610a6c565b820191906000526020600020905b815481529060010190602001808311610a4f57829003601f168201915b5050505050905090565b600080610a81610dcd565b90506000610a8f8286610c4e565b905083811015610ad4576040517f08c379a0000000000000000000000000000000000000000000000000000000008152600401610acb90611d01565b60405180910390fd5b610ae18286868403610dd5565b60019250505092915050565b600080610af8610dcd565b9050610b0581858561102c565b600191505092915050565b60065481565b6000803411610b5a576040517f08c379a0000000000000000000000000000000000000000000000000000000008152600401610b5190611d6d565b60405180910390fd5b600060065434610b6a9190611d8d565b90506000610b77306108ea565b905081811015610bbc576040517f08c379a0000000000000000000000000000000000000000000000000000000008152600401610bb390611e59565b60405180910390fd5b6000610bc83384610aed565b905080610c0a576040517f08c379a0000000000000000000000000000000000000000000000000000000008152600401610c0190611ec5565b60405180910390fd5b7f0a37b72bb67eee30e09084cf386f8a17817c57f620c3ab95fb25d6a20356ec77333485604051610c3d93929190611ee5565b60405180910390a182935050505090565b6000600160008473ffffffffffffffffffffffffffffffffffffffff1673ffffffffffffffffffffffffffffffffffffffff16815260200190815260200160002060008373ffffffffffffffffffffffffffffffffffffffff1673ffffffffffffffffffffffffffffffffffffffff16815260200190815260200160002054905092915050565b610cdd610dcd565b73ffffffffffffffffffffffffffffffffffffffff16610cfb6109ba565b73ffffffffffffffffffffffffffffffffffffffff1614610d51576040517f08c379a0000000000000000000000000000000000000000000000000000000008152600401610d48906117f1565b60405180910390fd5b600073ffffffffffffffffffffffffffffffffffffffff168173ffffffffffffffffffffffffffffffffffffffff161415610dc1576040517f08c379a0000000000000000000000000000000000000000000000000000000008152600401610db890611f8e565b60405180910390fd5b610dca816112ad565b50565b600033905090565b600073ffffffffffffffffffffffffffffffffffffffff168373ffffffffffffffffffffffffffffffffffffffff161415610e45576040517f08c379a0000000000000000000000000000000000000000000000000000000008152600401610e3c90612020565b60405180910390fd5b600073ffffffffffffffffffffffffffffffffffffffff168273ffffffffffffffffffffffffffffffffffffffff161415610eb5576040517f08c379a0000000000000000000000000000000000000000000000000000000008152600401610eac906120b2565b60405180910390fd5b80600160008573ffffffffffffffffffffffffffffffffffffffff1673ffffffffffffffffffffffffffffffffffffffff16815260200190815260200160002060008473ffffffffffffffffffffffffffffffffffffffff1673ffffffffffffffffffffffffffffffffffffffff168152602001908152602001600020819055508173ffffffffffffffffffffffffffffffffffffffff168373ffffffffffffffffffffffffffffffffffffffff167f8c5be1e5ebec7d5bd14f71427d1e84f3dd0314c0f7b2291e5b200ac8c7c3b92583604051610f939190611556565b60405180910390a3505050565b6000610fac8484610c4e565b90507fffffffffffffffffffffffffffffffffffffffffffffffffffffffffffffffff81146110265781811015611018576040517f08c379a000000000000000000000000000000000000000000000000000000000815260040161100f9061211e565b60405180910390fd5b6110258484848403610dd5565b5b50505050565b600073ffffffffffffffffffffffffffffffffffffffff168373ffffffffffffffffffffffffffffffffffffffff16141561109c576040517f08c379a0000000000000000000000000000000000000000000000000000000008152600401611093906121b0565b60405180910390fd5b600073ffffffffffffffffffffffffffffffffffffffff168273ffffffffffffffffffffffffffffffffffffffff16141561110c576040517f08c379a000000000000000000000000000000000000000000000000000000000815260040161110390612242565b60405180910390fd5b611117838383611373565b60008060008573ffffffffffffffffffffffffffffffffffffffff1673ffffffffffffffffffffffffffffffffffffffff1681526020019081526020016000205490508181101561119d576040517f08c379a0000000000000000000000000000000000000000000000000000000008152600401611194906122d4565b60405180910390fd5b8181036000808673ffffffffffffffffffffffffffffffffffffffff1673ffffffffffffffffffffffffffffffffffffffff16815260200190815260200160002081905550816000808573ffffffffffffffffffffffffffffffffffffffff1673ffffffffffffffffffffffffffffffffffffffff1681526020019081526020016000206000828254611230919061174f565b925050819055508273ffffffffffffffffffffffffffffffffffffffff168473ffffffffffffffffffffffffffffffffffffffff167fddf252ad1be2c89b69c2b068fc378daa952ba7f163c4a11628f55a4df523b3ef846040516112949190611556565b60405180910390a36112a7848484611378565b50505050565b6000600560009054906101000a900473ffffffffffffffffffffffffffffffffffffffff16905081600560006101000a81548173ffffffffffffffffffffffffffffffffffffffff021916908373ffffffffffffffffffffffffffffffffffffffff1602179055508173ffffffffffffffffffffffffffffffffffffffff168173ffffffffffffffffffffffffffffffffffffffff167f8be0079c531659141344cd1fd0a4f28419497f9722a3daafe3b4186f6b6457e060405160405180910390a35050565b505050565b505050565b600081519050919050565b600082825260208201905092915050565b60005b838110156113b757808201518184015260208101905061139c565b838111156113c6576000848401525b50505050565b6000601f19601f8301169050919050565b60006113e88261137d565b6113f28185611388565b9350611402818560208601611399565b61140b816113cc565b840191505092915050565b6000602082019050818103600083015261143081846113dd565b905092915050565b600080fd5b600073ffffffffffffffffffffffffffffffffffffffff82169050919050565b60006114688261143d565b9050919050565b6114788161145d565b811461148357600080fd5b50565b6000813590506114958161146f565b92915050565b6000819050919050565b6114ae8161149b565b81146114b957600080fd5b50565b6000813590506114cb816114a5565b92915050565b600080604083850312156114e8576114e7611438565b5b60006114f685828601611486565b9250506020611507858286016114bc565b9150509250929050565b60008115159050919050565b61152681611511565b82525050565b6000602082019050611541600083018461151d565b92915050565b6115508161149b565b82525050565b600060208201905061156b6000830184611547565b92915050565b60008060006060848603121561158a57611589611438565b5b600061159886828701611486565b93505060206115a986828701611486565b92505060406115ba868287016114bc565b9150509250925092565b600060ff82169050919050565b6115da816115c4565b82525050565b60006020820190506115f560008301846115d1565b92915050565b60006020828403121561161157611610611438565b5b600061161f848285016114bc565b91505092915050565b60006020828403121561163e5761163d611438565b5b600061164c84828501611486565b91505092915050565b61165e8161145d565b82525050565b60006020820190506116796000830184611655565b92915050565b6000806040838503121561169657611695611438565b5b60006116a485828601611486565b92505060206116b585828601611486565b9150509250929050565b7f4e487b7100000000000000000000000000000000000000000000000000000000600052602260045260246000fd5b6000600282049050600182168061170657607f821691505b6020821081141561171a576117196116bf565b5b50919050565b7f4e487b7100000000000000000000000000000000000000000000000000000000600052601160045260246000fd5b600061175a8261149b565b91506117658361149b565b9250827fffffffffffffffffffffffffffffffffffffffffffffffffffffffffffffffff0382111561179a57611799611720565b5b828201905092915050565b7f4f776e61626c653a2063616c6c6572206973206e6f7420746865206f776e6572600082015250565b60006117db602083611388565b91506117e6826117a5565b602082019050919050565b6000602082019050818103600083015261180a816117ce565b9050919050565b7f4f776e657220686173206e6f742062616c616e636520746f207769746864726160008201527f7700000000000000000000000000000000000000000000000000000000000000602082015250565b600061186d602183611388565b915061187882611811565b604082019050919050565b6000602082019050818103600083015261189c81611860565b9050919050565b600081905092915050565b50565b60006118be6000836118a3565b91506118c9826118ae565b600082019050919050565b60006118df826118b1565b9150819050919050565b7f4661696c656420746f2073656e6420757365722062616c616e6365206261636b60008201527f20746f20746865206f776e657200000000000000000000000000000000000000602082015250565b6000611945602d83611388565b9150611950826118e9565b604082019050919050565b6000602082019050818103600083015261197481611938565b9050919050565b7f5370656369667920616e20616d6f756e74206f6620746f6b656e20677265617460008201527f6572207468616e207a65726f0000000000000000000000000000000000000000602082015250565b60006119d7602c83611388565b91506119e28261197b565b604082019050919050565b60006020820190508181036000830152611a06816119ca565b9050919050565b7f596f75722062616c616e6365206973206c6f776572207468616e20746865206160008201527f6d6f756e74206f6620746f6b656e7320796f752077616e7420746f2073656c6c602082015250565b6000611a69604083611388565b9150611a7482611a0d565b604082019050919050565b60006020820190508181036000830152611a9881611a5c565b9050919050565b7f4e487b7100000000000000000000000000000000000000000000000000000000600052601260045260246000fd5b6000611ad98261149b565b9150611ae48361149b565b925082611af457611af3611a9f565b5b828204905092915050565b7f436f6e747261637420686173206e6f7420656e6f7567682066756e647320746f60008201527f20616363657074207468652073656c6c20726571756573740000000000000000602082015250565b6000611b5b603883611388565b9150611b6682611aff565b604082019050919050565b60006020820190508181036000830152611b8a81611b4e565b9050919050565b7f4661696c656420746f207472616e7366657220746f6b656e732066726f6d207560008201527f73657220746f2076656e646f7200000000000000000000000000000000000000602082015250565b6000611bed602d83611388565b9150611bf882611b91565b604082019050919050565b60006020820190508181036000830152611c1c81611be0565b9050919050565b7f4661696c656420746f2073656e642045544820746f2074686520757365720000600082015250565b6000611c59601e83611388565b9150611c6482611c23565b602082019050919050565b60006020820190508181036000830152611c8881611c4c565b9050919050565b7f45524332303a2064656372656173656420616c6c6f77616e63652062656c6f7760008201527f207a65726f000000000000000000000000000000000000000000000000000000602082015250565b6000611ceb602583611388565b9150611cf682611c8f565b604082019050919050565b60006020820190508181036000830152611d1a81611cde565b9050919050565b7f53656e642045544820746f2062757920736f6d6520746f6b656e730000000000600082015250565b6000611d57601b83611388565b9150611d6282611d21565b602082019050919050565b60006020820190508181036000830152611d8681611d4a565b9050919050565b6000611d988261149b565b9150611da38361149b565b9250817fffffffffffffffffffffffffffffffffffffffffffffffffffffffffffffffff0483118215151615611ddc57611ddb611720565b5b828202905092915050565b7f436f6e747261637420686173206e6f7420656e6f75676820746f6b656e73206960008201527f6e206974732062616c616e636500000000000000000000000000000000000000602082015250565b6000611e43602d83611388565b9150611e4e82611de7565b604082019050919050565b60006020820190508181036000830152611e7281611e36565b9050919050565b7f4661696c656420746f207472616e7366657220746f6b656e20746f2075736572600082015250565b6000611eaf602083611388565b9150611eba82611e79565b602082019050919050565b60006020820190508181036000830152611ede81611ea2565b9050919050565b6000606082019050611efa6000830186611655565b611f076020830185611547565b611f146040830184611547565b949350505050565b7f4f776e61626c653a206e6577206f776e657220697320746865207a65726f206160008201527f6464726573730000000000000000000000000000000000000000000000000000602082015250565b6000611f78602683611388565b9150611f8382611f1c565b604082019050919050565b60006020820190508181036000830152611fa781611f6b565b9050919050565b7f45524332303a20617070726f76652066726f6d20746865207a65726f2061646460008201527f7265737300000000000000000000000000000000000000000000000000000000602082015250565b600061200a602483611388565b915061201582611fae565b604082019050919050565b6000602082019050818103600083015261203981611ffd565b9050919050565b7f45524332303a20617070726f766520746f20746865207a65726f20616464726560008201527f7373000000000000000000000000000000000000000000000000000000000000602082015250565b600061209c602283611388565b91506120a782612040565b604082019050919050565b600060208201905081810360008301526120cb8161208f565b9050919050565b7f45524332303a20696e73756666696369656e7420616c6c6f77616e6365000000600082015250565b6000612108601d83611388565b9150612113826120d2565b602082019050919050565b60006020820190508181036000830152612137816120fb565b9050919050565b7f45524332303a207472616e736665722066726f6d20746865207a65726f20616460008201527f6472657373000000000000000000000000000000000000000000000000000000602082015250565b600061219a602583611388565b91506121a58261213e565b604082019050919050565b600060208201905081810360008301526121c98161218d565b9050919050565b7f45524332303a207472616e7366657220746f20746865207a65726f206164647260008201527f6573730000000000000000000000000000000000000000000000000000000000602082015250565b600061222c602383611388565b9150612237826121d0565b604082019050919050565b6000602082019050818103600083015261225b8161221f565b9050919050565b7f45524332303a207472616e7366657220616d6f756e742065786365656473206260008201527f616c616e63650000000000000000000000000000000000000000000000000000602082015250565b60006122be602683611388565b91506122c982612262565b604082019050919050565b600060208201905081810360008301526122ed816122b1565b905091905056fea26469706673582212205797e730290ba63a4822903a1989c2fd3f039d99101670d7600a58f930ffac2664736f6c634300080b0033",
  "immutableReferences": {},
  "source": "// SPDX-License-Identifier: MIT\npragma solidity >=0.4.22 <0.9.0;\nimport \"@openzeppelin/contracts/token/ERC20/ERC20.sol\";\nimport \"@openzeppelin/contracts/access/Ownable.sol\";\n\ncontract OpenVault is ERC20,Ownable{\n    uint256 public tokensPerEth = 1;\n    address developmentWallet;\n\n\n    event BuyTokens(address buyer, uint256 amountOfETH, uint256 amountOfTokens);\n\n    constructor() ERC20(\"OpenVault\", \"OVT\") {\n        _mint(address(this), 1000000000*10**18); // mint 1 billion tokens to contract address\n    }\n\n    // buy tokens\n    function buyTokens() public payable returns (uint256 tokenAmount) {\n        require(msg.value > 0, \"Send ETH to buy some tokens\");\n    \n        uint256 amountToBuy = msg.value * tokensPerEth; \n\n        // check if the Vendor Contract has enough amount of tokens for the transaction\n        uint256 contractBalance = balanceOf(address(this));\n        require(contractBalance >= amountToBuy, \"Contract has not enough tokens in its balance\");\n\n        // Transfer token to the msg.sender\n        (bool sent) =transfer(msg.sender, amountToBuy); \n        require(sent, \"Failed to transfer token to user\");\n        emit BuyTokens(msg.sender, msg.value, amountToBuy);\n        return amountToBuy;\n   }\n\n   // sell tokens\n     function sellTokens(uint256 tokenAmountToSell) public {\n        // Check that the requested amount of tokens to sell is more than 0\n        require(tokenAmountToSell > 0, \"Specify an amount of token greater than zero\");\n\n        // Check that the user's token balance is enough to do the swap\n        uint256 userBalance =balanceOf(msg.sender);\n        require(userBalance >= tokenAmountToSell, \"Your balance is lower than the amount of tokens you want to sell\");\n\n        // Check that the Vendor's balance is enough to do the swap\n        uint256 amountOfETHToTransfer = tokenAmountToSell / tokensPerEth;\n        uint256 ownerETHBalance = address(this).balance;\n        require(ownerETHBalance >= amountOfETHToTransfer, \"Contract has not enough funds to accept the sell request\");\n\n        (bool sent) = transferFrom(msg.sender, address(this), tokenAmountToSell);\n        require(sent, \"Failed to transfer tokens from user to vendor\");\n\n\n        (sent,) = msg.sender.call{value: amountOfETHToTransfer}(\"\");\n        require(sent, \"Failed to send ETH to the user\");\n   }\n\n   // withdraw eth\n   function withdraw() public onlyOwner {\n    uint256 ownerBalance = address(this).balance;\n    require(ownerBalance > 0, \"Owner has not balance to withdraw\");\n\n    (bool sent,) = msg.sender.call{value: address(this).balance}(\"\");\n    require(sent, \"Failed to send user balance back to the owner\");\n  }\n}",
  "sourcePath": "/Users/samiullah/Desktop/openvault/contracts/OpenVault.sol",
  "compiler": {
    "name": "solc",
    "version": "0.8.11+commit.d7f03943.Emscripten.clang"
  },
  "schemaVersion": "3.4.4",
  "updatedAt": "2022-05-28T20:22:48.769Z",
  "networkType": "ethereum",
  "devdoc": {
    "kind": "dev",
    "methods": {
      "allowance(address,address)": {
        "details": "See {IERC20-allowance}."
      },
      "approve(address,uint256)": {
        "details": "See {IERC20-approve}. NOTE: If `amount` is the maximum `uint256`, the allowance is not updated on `transferFrom`. This is semantically equivalent to an infinite approval. Requirements: - `spender` cannot be the zero address."
      },
      "balanceOf(address)": {
        "details": "See {IERC20-balanceOf}."
      },
      "decimals()": {
        "details": "Returns the number of decimals used to get its user representation. For example, if `decimals` equals `2`, a balance of `505` tokens should be displayed to a user as `5.05` (`505 / 10 ** 2`). Tokens usually opt for a value of 18, imitating the relationship between Ether and Wei. This is the value {ERC20} uses, unless this function is overridden; NOTE: This information is only used for _display_ purposes: it in no way affects any of the arithmetic of the contract, including {IERC20-balanceOf} and {IERC20-transfer}."
      },
      "decreaseAllowance(address,uint256)": {
        "details": "Atomically decreases the allowance granted to `spender` by the caller. This is an alternative to {approve} that can be used as a mitigation for problems described in {IERC20-approve}. Emits an {Approval} event indicating the updated allowance. Requirements: - `spender` cannot be the zero address. - `spender` must have allowance for the caller of at least `subtractedValue`."
      },
      "increaseAllowance(address,uint256)": {
        "details": "Atomically increases the allowance granted to `spender` by the caller. This is an alternative to {approve} that can be used as a mitigation for problems described in {IERC20-approve}. Emits an {Approval} event indicating the updated allowance. Requirements: - `spender` cannot be the zero address."
      },
      "name()": {
        "details": "Returns the name of the token."
      },
      "owner()": {
        "details": "Returns the address of the current owner."
      },
      "renounceOwnership()": {
        "details": "Leaves the contract without owner. It will not be possible to call `onlyOwner` functions anymore. Can only be called by the current owner. NOTE: Renouncing ownership will leave the contract without an owner, thereby removing any functionality that is only available to the owner."
      },
      "symbol()": {
        "details": "Returns the symbol of the token, usually a shorter version of the name."
      },
      "totalSupply()": {
        "details": "See {IERC20-totalSupply}."
      },
      "transfer(address,uint256)": {
        "details": "See {IERC20-transfer}. Requirements: - `to` cannot be the zero address. - the caller must have a balance of at least `amount`."
      },
      "transferFrom(address,address,uint256)": {
        "details": "See {IERC20-transferFrom}. Emits an {Approval} event indicating the updated allowance. This is not required by the EIP. See the note at the beginning of {ERC20}. NOTE: Does not update the allowance if the current allowance is the maximum `uint256`. Requirements: - `from` and `to` cannot be the zero address. - `from` must have a balance of at least `amount`. - the caller must have allowance for ``from``'s tokens of at least `amount`."
      },
      "transferOwnership(address)": {
        "details": "Transfers ownership of the contract to a new account (`newOwner`). Can only be called by the current owner."
      }
    },
    "version": 1
  },
  "userdoc": {
    "kind": "user",
    "methods": {},
    "version": 1
  }
}